{
  "abi": [
    {
      "inputs": [],
      "stateMutability": "nonpayable",
      "type": "constructor"
    },
    {
      "inputs": [],
      "name": "apr",
      "outputs": [],
      "stateMutability": "nonpayable",
      "type": "function"
    },
    {
      "inputs": [
        {
          "internalType": "address",
          "name": "",
          "type": "address"
        }
      ],
      "name": "balanceOf",
      "outputs": [],
      "stateMutability": "nonpayable",
      "type": "function"
    },
    {
      "inputs": [],
      "name": "deposit",
      "outputs": [],
      "stateMutability": "nonpayable",
      "type": "function"
    },
    {
      "inputs": [],
      "name": "factory",
      "outputs": [
        {
          "internalType": "address",
          "name": "",
          "type": "address"
        }
      ],
      "stateMutability": "view",
      "type": "function"
    },
    {
      "inputs": [
        {
          "internalType": "address",
          "name": "vault",
          "type": "address"
        }
      ],
      "name": "getPricePerShare",
      "outputs": [
        {
          "internalType": "uint256",
          "name": "",
          "type": "uint256"
        }
      ],
      "stateMutability": "view",
      "type": "function"
    },
    {
      "inputs": [
        {
          "internalType": "address",
          "name": "vault",
          "type": "address"
        }
      ],
      "name": "getUnderlyingToken",
      "outputs": [
        {
          "internalType": "address",
          "name": "",
          "type": "address"
        }
      ],
      "stateMutability": "view",
      "type": "function"
    },
    {
      "inputs": [
        {
          "internalType": "uint256",
          "name": "_something",
          "type": "uint256"
        }
      ],
      "name": "setSomething",
      "outputs": [],
      "stateMutability": "nonpayable",
      "type": "function"
    },
    {
      "inputs": [],
      "name": "something",
      "outputs": [
        {
          "internalType": "uint256",
          "name": "",
          "type": "uint256"
        }
      ],
      "stateMutability": "view",
      "type": "function"
    },
    {
      "inputs": [],
      "name": "totalSupply",
      "outputs": [
        {
          "internalType": "uint256",
          "name": "",
          "type": "uint256"
        }
      ],
      "stateMutability": "view",
      "type": "function"
    }
  ],
  "bytecode": "60806040526003805460ff1916905534801561001a57600080fd5b50600180546001600160a01b031916331790556103178061003c6000396000f3fe608060405234801561001057600080fd5b50600436106100935760003560e01c8063a7a0d53711610066578063a7a0d537146100f2578063c41b461b146100fb578063c45a01551461010e578063d0e30db0146100b4578063ec422afd1461012157600080fd5b806318160ddd1461009857806357ded9c9146100b4578063691bcc88146100b657806370a08231146100e1575b600080fd5b6100a160005481565b6040519081526020015b60405180910390f35b005b6100c96100c4366004610275565b610134565b6040516001600160a01b0390911681526020016100ab565b6100b46100ef366004610275565b50565b6100a160025481565b6100b4610109366004610292565b61019e565b6001546100c9906001600160a01b031681565b6100a161012f366004610275565b6101f1565b6000816001600160a01b031663fc0c546a6040518163ffffffff1660e01b8152600401602060405180830381865afa158015610174573d6000803e3d6000fd5b505050506040513d601f19601f8201168201806040525081019061019891906102ab565b92915050565b6001546001600160a01b031633146101ec5760405162461bcd60e51b815260206004820152600d60248201526c6f6e6c79466163746f7279282960981b604482015260640160405180910390fd5b600255565b600080829050806001600160a01b03166399530b066040518163ffffffff1660e01b8152600401602060405180830381865afa158015610235573d6000803e3d6000fd5b505050506040513d601f19601f8201168201806040525081019061025991906102c8565b9392505050565b6001600160a01b03811681146100ef57600080fd5b60006020828403121561028757600080fd5b813561025981610260565b6000602082840312156102a457600080fd5b5035919050565b6000602082840312156102bd57600080fd5b815161025981610260565b6000602082840312156102da57600080fd5b505191905056fea2646970667358221220419a14d823c97e56f752d629eee983815f17f16da1862404e497d10582a4583264736f6c634300080c0033",
  "bytecodeSha1": "08624220a74cdfed532603e7693e04d5e8c4316b",
  "compiler": {
    "evm_version": "istanbul",
    "optimizer": {
      "enabled": true,
      "runs": 200
    },
    "version": "0.8.12+commit.f00d7308"
  },
  "contractName": "Vault",
  "language": "Solidity",
  "natspec": {
    "kind": "dev",
    "methods": {},
    "version": 1
  },
  "opcodes": "PUSH1 0x80 PUSH1 0x40 MSTORE CALLVALUE DUP1 ISZERO PUSH2 0x10 JUMPI PUSH1 0x0 DUP1 REVERT JUMPDEST POP PUSH1 0x4 CALLDATASIZE LT PUSH2 0x93 JUMPI PUSH1 0x0 CALLDATALOAD PUSH1 0xE0 SHR DUP1 PUSH4 0xA7A0D537 GT PUSH2 0x66 JUMPI DUP1 PUSH4 0xA7A0D537 EQ PUSH2 0xF2 JUMPI DUP1 PUSH4 0xC41B461B EQ PUSH2 0xFB JUMPI DUP1 PUSH4 0xC45A0155 EQ PUSH2 0x10E JUMPI DUP1 PUSH4 0xD0E30DB0 EQ PUSH2 0xB4 JUMPI DUP1 PUSH4 0xEC422AFD EQ PUSH2 0x121 JUMPI PUSH1 0x0 DUP1 REVERT JUMPDEST DUP1 PUSH4 0x18160DDD EQ PUSH2 0x98 JUMPI DUP1 PUSH4 0x57DED9C9 EQ PUSH2 0xB4 JUMPI DUP1 PUSH4 0x691BCC88 EQ PUSH2 0xB6 JUMPI DUP1 PUSH4 0x70A08231 EQ PUSH2 0xE1 JUMPI JUMPDEST PUSH1 0x0 DUP1 REVERT JUMPDEST PUSH2 0xA1 PUSH1 0x0 SLOAD DUP2 JUMP JUMPDEST PUSH1 0x40 MLOAD SWAP1 DUP2 MSTORE PUSH1 0x20 ADD JUMPDEST PUSH1 0x40 MLOAD DUP1 SWAP2 SUB SWAP1 RETURN JUMPDEST STOP JUMPDEST PUSH2 0xC9 PUSH2 0xC4 CALLDATASIZE PUSH1 0x4 PUSH2 0x275 JUMP JUMPDEST PUSH2 0x134 JUMP JUMPDEST PUSH1 0x40 MLOAD PUSH1 0x1 PUSH1 0x1 PUSH1 0xA0 SHL SUB SWAP1 SWAP2 AND DUP2 MSTORE PUSH1 0x20 ADD PUSH2 0xAB JUMP JUMPDEST PUSH2 0xB4 PUSH2 0xEF CALLDATASIZE PUSH1 0x4 PUSH2 0x275 JUMP JUMPDEST POP JUMP JUMPDEST PUSH2 0xA1 PUSH1 0x2 SLOAD DUP2 JUMP JUMPDEST PUSH2 0xB4 PUSH2 0x109 CALLDATASIZE PUSH1 0x4 PUSH2 0x292 JUMP JUMPDEST PUSH2 0x19E JUMP JUMPDEST PUSH1 0x1 SLOAD PUSH2 0xC9 SWAP1 PUSH1 0x1 PUSH1 0x1 PUSH1 0xA0 SHL SUB AND DUP2 JUMP JUMPDEST PUSH2 0xA1 PUSH2 0x12F CALLDATASIZE PUSH1 0x4 PUSH2 0x275 JUMP JUMPDEST PUSH2 0x1F1 JUMP JUMPDEST PUSH1 0x0 DUP2 PUSH1 0x1 PUSH1 0x1 PUSH1 0xA0 SHL SUB AND PUSH4 0xFC0C546A PUSH1 0x40 MLOAD DUP2 PUSH4 0xFFFFFFFF AND PUSH1 0xE0 SHL DUP2 MSTORE PUSH1 0x4 ADD PUSH1 0x20 PUSH1 0x40 MLOAD DUP1 DUP4 SUB DUP2 DUP7 GAS STATICCALL ISZERO DUP1 ISZERO PUSH2 0x174 JUMPI RETURNDATASIZE PUSH1 0x0 DUP1 RETURNDATACOPY RETURNDATASIZE PUSH1 0x0 REVERT JUMPDEST POP POP POP POP PUSH1 0x40 MLOAD RETURNDATASIZE PUSH1 0x1F NOT PUSH1 0x1F DUP3 ADD AND DUP3 ADD DUP1 PUSH1 0x40 MSTORE POP DUP2 ADD SWAP1 PUSH2 0x198 SWAP2 SWAP1 PUSH2 0x2AB JUMP JUMPDEST SWAP3 SWAP2 POP POP JUMP JUMPDEST PUSH1 0x1 SLOAD PUSH1 0x1 PUSH1 0x1 PUSH1 0xA0 SHL SUB AND CALLER EQ PUSH2 0x1EC JUMPI PUSH1 0x40 MLOAD PUSH3 0x461BCD PUSH1 0xE5 SHL DUP2 MSTORE PUSH1 0x20 PUSH1 0x4 DUP3 ADD MSTORE PUSH1 0xD PUSH1 0x24 DUP3 ADD MSTORE PUSH13 0x6F6E6C79466163746F72792829 PUSH1 0x98 SHL PUSH1 0x44 DUP3 ADD MSTORE PUSH1 0x64 ADD PUSH1 0x40 MLOAD DUP1 SWAP2 SUB SWAP1 REVERT JUMPDEST PUSH1 0x2 SSTORE JUMP JUMPDEST PUSH1 0x0 DUP1 DUP3 SWAP1 POP DUP1 PUSH1 0x1 PUSH1 0x1 PUSH1 0xA0 SHL SUB AND PUSH4 0x99530B06 PUSH1 0x40 MLOAD DUP2 PUSH4 0xFFFFFFFF AND PUSH1 0xE0 SHL DUP2 MSTORE PUSH1 0x4 ADD PUSH1 0x20 PUSH1 0x40 MLOAD DUP1 DUP4 SUB DUP2 DUP7 GAS STATICCALL ISZERO DUP1 ISZERO PUSH2 0x235 JUMPI RETURNDATASIZE PUSH1 0x0 DUP1 RETURNDATACOPY RETURNDATASIZE PUSH1 0x0 REVERT JUMPDEST POP POP POP POP PUSH1 0x40 MLOAD RETURNDATASIZE PUSH1 0x1F NOT PUSH1 0x1F DUP3 ADD AND DUP3 ADD DUP1 PUSH1 0x40 MSTORE POP DUP2 ADD SWAP1 PUSH2 0x259 SWAP2 SWAP1 PUSH2 0x2C8 JUMP JUMPDEST SWAP4 SWAP3 POP POP POP JUMP JUMPDEST PUSH1 0x1 PUSH1 0x1 PUSH1 0xA0 SHL SUB DUP2 AND DUP2 EQ PUSH2 0xEF JUMPI PUSH1 0x0 DUP1 REVERT JUMPDEST PUSH1 0x0 PUSH1 0x20 DUP3 DUP5 SUB SLT ISZERO PUSH2 0x287 JUMPI PUSH1 0x0 DUP1 REVERT JUMPDEST DUP2 CALLDATALOAD PUSH2 0x259 DUP2 PUSH2 0x260 JUMP JUMPDEST PUSH1 0x0 PUSH1 0x20 DUP3 DUP5 SUB SLT ISZERO PUSH2 0x2A4 JUMPI PUSH1 0x0 DUP1 REVERT JUMPDEST POP CALLDATALOAD SWAP2 SWAP1 POP JUMP JUMPDEST PUSH1 0x0 PUSH1 0x20 DUP3 DUP5 SUB SLT ISZERO PUSH2 0x2BD JUMPI PUSH1 0x0 DUP1 REVERT JUMPDEST DUP2 MLOAD PUSH2 0x259 DUP2 PUSH2 0x260 JUMP JUMPDEST PUSH1 0x0 PUSH1 0x20 DUP3 DUP5 SUB SLT ISZERO PUSH2 0x2DA JUMPI PUSH1 0x0 DUP1 REVERT JUMPDEST POP MLOAD SWAP2 SWAP1 POP JUMP INVALID LOG2 PUSH5 0x6970667358 0x22 SLT KECCAK256 COINBASE SWAP11 EQ 0xD8 0x23 0xC9 PUSH31 0x56F752D629EEE983815F17F16DA1862404E497D10582A4583264736F6C6343 STOP ADDMOD 0xC STOP CALLER ",
  "sha1": "b057a963ad405ca5fda7703438735092caa19f19",
  "source": "pragma solidity ^0.8.0;\n    /*\n    * @title HobeVault\n    */\n\nimport {YearnVault} from \"../interfaces/YearnVault.sol\";\n\ncontract Vault {\n\n    uint256 public totalSupply;\n\n    address public factory;\n    uint256 public something;\n    bool private _init_done = false;\n    address[] accepted_tokens;\n\n    mapping (address => uint256) user_to_ids;\n\n\n    modifier onlyFactory() {\n      require(msg.sender == factory, \"onlyFactory()\");\n      _;\n    }\n\n    modifier updateMaxFixed() {\n\n      _;\n    }\n\n    constructor () public {\n      factory = msg.sender;\n    }\n\n    function setSomething(uint256 _something) external onlyFactory {\n      something = _something;\n    }\n\n    function deposit() external {\n      \n    }\n\n    function _invest() internal {\n      // берет текущие балансы accepted_tokens и депозитит фармиться\n    }\n\n    //грубо говоря надо обучить наш ваулт узнавать АПИ пула к которому он подключен\n    function apr() external { // aka pricePerShare -> shareValue -> APR\n    }\n\n\n    // Getter functions for Yearn vault\n    function getUnderlyingToken(address vault) public view returns(address){\n        // @return The underlying token in the YearnVault\n        return YearnVault(vault).token();\n    }\n\n    function getPricePerShare(address vault) public view returns(uint256){\n        // @notice Computes the latest yield value for a yearn vault.\n        // @return The latest yield value\n        YearnVault yearnVault = YearnVault(vault);\n        return (yearnVault.pricePerShare());\n    }\n\n    function balanceOf(address) public {\n      // возвращает искаженное число токенов которое можно конвертировать в инвестицию\n    }\n}\n\n",
  "sourcePath": "contracts/Vault.sol",
  "type": "contract"
}