{
  "abi": [
    {
      "anonymous": false,
      "inputs": [
        {
          "indexed": false,
          "internalType": "address",
          "name": "vault",
          "type": "address"
        },
        {
          "indexed": false,
          "internalType": "bool",
          "name": "success",
          "type": "bool"
        }
      ],
      "name": "AddedValuesByDelegateCall",
      "type": "event"
    },
    {
      "anonymous": false,
      "inputs": [
        {
          "indexed": false,
          "internalType": "uint256",
          "name": "test",
          "type": "uint256"
        }
      ],
      "name": "Test",
      "type": "event"
    },
    {
      "anonymous": false,
      "inputs": [
        {
          "indexed": false,
          "internalType": "address",
          "name": "",
          "type": "address"
        }
      ],
      "name": "implementationIsSet",
      "type": "event"
    },
    {
      "inputs": [],
      "name": "factory",
      "outputs": [
        {
          "internalType": "address",
          "name": "",
          "type": "address"
        }
      ],
      "stateMutability": "view",
      "type": "function"
    },
    {
      "inputs": [],
      "name": "getImplementation",
      "outputs": [
        {
          "internalType": "address",
          "name": "",
          "type": "address"
        }
      ],
      "stateMutability": "view",
      "type": "function"
    },
    {
      "inputs": [],
      "name": "implementation",
      "outputs": [
        {
          "internalType": "address",
          "name": "",
          "type": "address"
        }
      ],
      "stateMutability": "view",
      "type": "function"
    },
    {
      "inputs": [
        {
          "internalType": "address",
          "name": "_implementation",
          "type": "address"
        }
      ],
      "name": "init",
      "outputs": [],
      "stateMutability": "nonpayable",
      "type": "function"
    },
    {
      "inputs": [
        {
          "internalType": "address",
          "name": "_vault",
          "type": "address"
        }
      ],
      "name": "testDelegateCallPricePerShare",
      "outputs": [],
      "stateMutability": "nonpayable",
      "type": "function"
    }
  ],
  "bytecode": "608060405234801561001057600080fd5b50610344806100206000396000f3fe608060405234801561001057600080fd5b50600436106100575760003560e01c806319ab453c1461005c5780635c60da1b146100715780639de0514e146100a0578063aaf10f42146100b3578063c45a0155146100c4575b600080fd5b61006f61006a36600461028a565b6100d7565b005b600154610084906001600160a01b031681565b6040516001600160a01b03909116815260200160405180910390f35b61006f6100ae36600461028a565b610161565b6001546001600160a01b0316610084565b600054610084906001600160a01b031681565b600154600160a01b900460ff16156101275760405162461bcd60e51b815260206004820152600e60248201526d1b9bc81cd958dbdb99081a5b9a5d60921b60448201526064015b60405180910390fd5b600080546001600160a01b03191633179055600180546001600160a81b0319166001600160a01b039290921691909117600160a01b179055565b6001546040516001600160a01b038381166024830152600092839291169060440160408051601f198184030181529181526020820180516001600160e01b0316631177d94d60e21b179052516101b791906102ba565b600060405180830381855af49150503d80600081146101f2576040519150601f19603f3d011682016040523d82523d6000602084013e6101f7565b606091505b50915091508161023f5760405162461bcd60e51b815260206004820152601360248201527219195b1959d85d1950d85b1b0819985a5b1959606a1b604482015260640161011e565b7f63a242a632efe33c0e210e04e4173612a17efa4f16aa4890bc7e46caece80de08180602001905181019061027491906102f5565b60405190815260200160405180910390a1505050565b60006020828403121561029c57600080fd5b81356001600160a01b03811681146102b357600080fd5b9392505050565b6000825160005b818110156102db57602081860181015185830152016102c1565b818111156102ea576000828501525b509190910192915050565b60006020828403121561030757600080fd5b505191905056fea26469706673582212204ff28362a773398b7301f9c09e570b90030b97277a78331905084bdf645bab2d64736f6c634300080d0033",
  "bytecodeSha1": "d4bcd767c420afb05ac31fede929355f1a558d91",
  "compiler": {
    "evm_version": "istanbul",
    "optimizer": {
      "enabled": true,
      "runs": 200
    },
    "version": "0.8.13+commit.abaa5c0e"
  },
  "contractName": "Vault",
  "language": "Solidity",
  "natspec": {
    "kind": "dev",
    "methods": {},
    "version": 1
  },
  "opcodes": "PUSH1 0x80 PUSH1 0x40 MSTORE CALLVALUE DUP1 ISZERO PUSH2 0x10 JUMPI PUSH1 0x0 DUP1 REVERT JUMPDEST POP PUSH1 0x4 CALLDATASIZE LT PUSH2 0x57 JUMPI PUSH1 0x0 CALLDATALOAD PUSH1 0xE0 SHR DUP1 PUSH4 0x19AB453C EQ PUSH2 0x5C JUMPI DUP1 PUSH4 0x5C60DA1B EQ PUSH2 0x71 JUMPI DUP1 PUSH4 0x9DE0514E EQ PUSH2 0xA0 JUMPI DUP1 PUSH4 0xAAF10F42 EQ PUSH2 0xB3 JUMPI DUP1 PUSH4 0xC45A0155 EQ PUSH2 0xC4 JUMPI JUMPDEST PUSH1 0x0 DUP1 REVERT JUMPDEST PUSH2 0x6F PUSH2 0x6A CALLDATASIZE PUSH1 0x4 PUSH2 0x28A JUMP JUMPDEST PUSH2 0xD7 JUMP JUMPDEST STOP JUMPDEST PUSH1 0x1 SLOAD PUSH2 0x84 SWAP1 PUSH1 0x1 PUSH1 0x1 PUSH1 0xA0 SHL SUB AND DUP2 JUMP JUMPDEST PUSH1 0x40 MLOAD PUSH1 0x1 PUSH1 0x1 PUSH1 0xA0 SHL SUB SWAP1 SWAP2 AND DUP2 MSTORE PUSH1 0x20 ADD PUSH1 0x40 MLOAD DUP1 SWAP2 SUB SWAP1 RETURN JUMPDEST PUSH2 0x6F PUSH2 0xAE CALLDATASIZE PUSH1 0x4 PUSH2 0x28A JUMP JUMPDEST PUSH2 0x161 JUMP JUMPDEST PUSH1 0x1 SLOAD PUSH1 0x1 PUSH1 0x1 PUSH1 0xA0 SHL SUB AND PUSH2 0x84 JUMP JUMPDEST PUSH1 0x0 SLOAD PUSH2 0x84 SWAP1 PUSH1 0x1 PUSH1 0x1 PUSH1 0xA0 SHL SUB AND DUP2 JUMP JUMPDEST PUSH1 0x1 SLOAD PUSH1 0x1 PUSH1 0xA0 SHL SWAP1 DIV PUSH1 0xFF AND ISZERO PUSH2 0x127 JUMPI PUSH1 0x40 MLOAD PUSH3 0x461BCD PUSH1 0xE5 SHL DUP2 MSTORE PUSH1 0x20 PUSH1 0x4 DUP3 ADD MSTORE PUSH1 0xE PUSH1 0x24 DUP3 ADD MSTORE PUSH14 0x1B9BC81CD958DBDB99081A5B9A5D PUSH1 0x92 SHL PUSH1 0x44 DUP3 ADD MSTORE PUSH1 0x64 ADD JUMPDEST PUSH1 0x40 MLOAD DUP1 SWAP2 SUB SWAP1 REVERT JUMPDEST PUSH1 0x0 DUP1 SLOAD PUSH1 0x1 PUSH1 0x1 PUSH1 0xA0 SHL SUB NOT AND CALLER OR SWAP1 SSTORE PUSH1 0x1 DUP1 SLOAD PUSH1 0x1 PUSH1 0x1 PUSH1 0xA8 SHL SUB NOT AND PUSH1 0x1 PUSH1 0x1 PUSH1 0xA0 SHL SUB SWAP3 SWAP1 SWAP3 AND SWAP2 SWAP1 SWAP2 OR PUSH1 0x1 PUSH1 0xA0 SHL OR SWAP1 SSTORE JUMP JUMPDEST PUSH1 0x1 SLOAD PUSH1 0x40 MLOAD PUSH1 0x1 PUSH1 0x1 PUSH1 0xA0 SHL SUB DUP4 DUP2 AND PUSH1 0x24 DUP4 ADD MSTORE PUSH1 0x0 SWAP3 DUP4 SWAP3 SWAP2 AND SWAP1 PUSH1 0x44 ADD PUSH1 0x40 DUP1 MLOAD PUSH1 0x1F NOT DUP2 DUP5 SUB ADD DUP2 MSTORE SWAP2 DUP2 MSTORE PUSH1 0x20 DUP3 ADD DUP1 MLOAD PUSH1 0x1 PUSH1 0x1 PUSH1 0xE0 SHL SUB AND PUSH4 0x1177D94D PUSH1 0xE2 SHL OR SWAP1 MSTORE MLOAD PUSH2 0x1B7 SWAP2 SWAP1 PUSH2 0x2BA JUMP JUMPDEST PUSH1 0x0 PUSH1 0x40 MLOAD DUP1 DUP4 SUB DUP2 DUP6 GAS DELEGATECALL SWAP2 POP POP RETURNDATASIZE DUP1 PUSH1 0x0 DUP2 EQ PUSH2 0x1F2 JUMPI PUSH1 0x40 MLOAD SWAP2 POP PUSH1 0x1F NOT PUSH1 0x3F RETURNDATASIZE ADD AND DUP3 ADD PUSH1 0x40 MSTORE RETURNDATASIZE DUP3 MSTORE RETURNDATASIZE PUSH1 0x0 PUSH1 0x20 DUP5 ADD RETURNDATACOPY PUSH2 0x1F7 JUMP JUMPDEST PUSH1 0x60 SWAP2 POP JUMPDEST POP SWAP2 POP SWAP2 POP DUP2 PUSH2 0x23F JUMPI PUSH1 0x40 MLOAD PUSH3 0x461BCD PUSH1 0xE5 SHL DUP2 MSTORE PUSH1 0x20 PUSH1 0x4 DUP3 ADD MSTORE PUSH1 0x13 PUSH1 0x24 DUP3 ADD MSTORE PUSH19 0x19195B1959D85D1950D85B1B0819985A5B1959 PUSH1 0x6A SHL PUSH1 0x44 DUP3 ADD MSTORE PUSH1 0x64 ADD PUSH2 0x11E JUMP JUMPDEST PUSH32 0x63A242A632EFE33C0E210E04E4173612A17EFA4F16AA4890BC7E46CAECE80DE0 DUP2 DUP1 PUSH1 0x20 ADD SWAP1 MLOAD DUP2 ADD SWAP1 PUSH2 0x274 SWAP2 SWAP1 PUSH2 0x2F5 JUMP JUMPDEST PUSH1 0x40 MLOAD SWAP1 DUP2 MSTORE PUSH1 0x20 ADD PUSH1 0x40 MLOAD DUP1 SWAP2 SUB SWAP1 LOG1 POP POP POP JUMP JUMPDEST PUSH1 0x0 PUSH1 0x20 DUP3 DUP5 SUB SLT ISZERO PUSH2 0x29C JUMPI PUSH1 0x0 DUP1 REVERT JUMPDEST DUP2 CALLDATALOAD PUSH1 0x1 PUSH1 0x1 PUSH1 0xA0 SHL SUB DUP2 AND DUP2 EQ PUSH2 0x2B3 JUMPI PUSH1 0x0 DUP1 REVERT JUMPDEST SWAP4 SWAP3 POP POP POP JUMP JUMPDEST PUSH1 0x0 DUP3 MLOAD PUSH1 0x0 JUMPDEST DUP2 DUP2 LT ISZERO PUSH2 0x2DB JUMPI PUSH1 0x20 DUP2 DUP7 ADD DUP2 ADD MLOAD DUP6 DUP4 ADD MSTORE ADD PUSH2 0x2C1 JUMP JUMPDEST DUP2 DUP2 GT ISZERO PUSH2 0x2EA JUMPI PUSH1 0x0 DUP3 DUP6 ADD MSTORE JUMPDEST POP SWAP2 SWAP1 SWAP2 ADD SWAP3 SWAP2 POP POP JUMP JUMPDEST PUSH1 0x0 PUSH1 0x20 DUP3 DUP5 SUB SLT ISZERO PUSH2 0x307 JUMPI PUSH1 0x0 DUP1 REVERT JUMPDEST POP MLOAD SWAP2 SWAP1 POP JUMP INVALID LOG2 PUSH5 0x6970667358 0x22 SLT KECCAK256 0x4F CALLCODE DUP4 PUSH3 0xA77339 DUP12 PUSH20 0x1F9C09E570B90030B97277A78331905084BDF64 JUMPDEST 0xAB 0x2D PUSH5 0x736F6C6343 STOP ADDMOD 0xD STOP CALLER ",
  "sha1": "47ad65fb4aee19348f5bd804bcb3fc451737e66b",
  "source": "// SPDX-License-Identifier: MIT\npragma solidity ^0.8.0;\n\ncontract Vault {\n\n    /*//////////////////////////////////////////////////////////////\n                               VARIABLES & EVENTS\n    //////////////////////////////////////////////////////////////*/\n\n    address public factory;\n    address public implementation;\n    bool private isInited;\n\n    event implementationIsSet(address);\n    event AddedValuesByDelegateCall(address vault, bool success);\n    event Test(uint256 test);\n\n\n    /*//////////////////////////////////////////////////////////////\n                               MODIFIERS\n    //////////////////////////////////////////////////////////////*/\n\n\n    modifier onlyFactory() {\n        require(msg.sender == factory, \"onlyFactory()\");\n        _;\n    }\n\n    /*//////////////////////////////////////////////////////////////\n                               INIT\n    //////////////////////////////////////////////////////////////*/\n\n    function init(address _implementation) external {\n        require(!isInited,\"no second init\");\n        factory = msg.sender;\n        implementation = _implementation;\n        isInited = true;\n    }\n\n\n    /*//////////////////////////////////////////////////////////////\n                               READS\n    //////////////////////////////////////////////////////////////*/\n\n\n\n\n    function getImplementation() external view returns(address){\n        return implementation;\n    }\n\n\n    /*//////////////////////////////////////////////////////////////\n                               WRITES\n    //////////////////////////////////////////////////////////////*/\n    \n\n\n\n\n    function testDelegateCallPricePerShare(address _vault) external {\n        (bool success, bytes memory returnedData) = implementation.delegatecall(\n        abi.encodeWithSignature(\"getYearnPricePerShare(address)\", _vault)\n        );\n        require(success, \"delegateCall failed\");\n        emit Test(abi.decode(returnedData, (uint256)));\n    }\n}\n\n    /*//////////////////////////////////////////////////////////////\n                               INTERNALS\n    //////////////////////////////////////////////////////////////*/\n    ",
  "sourcePath": "contracts/Vault.sol",
  "type": "contract"
}