{
  "abi": [
    {
      "inputs": [],
      "stateMutability": "nonpayable",
      "type": "constructor"
    },
    {
      "inputs": [
        {
          "internalType": "address",
          "name": "",
          "type": "address"
        }
      ],
      "name": "balanceOf",
      "outputs": [],
      "stateMutability": "nonpayable",
      "type": "function"
    },
    {
      "inputs": [
        {
          "internalType": "uint256",
          "name": "underlyingAmount",
          "type": "uint256"
        },
        {
          "internalType": "address",
          "name": "vault",
          "type": "address"
        }
      ],
      "name": "deposit",
      "outputs": [
        {
          "internalType": "uint256",
          "name": "",
          "type": "uint256"
        }
      ],
      "stateMutability": "nonpayable",
      "type": "function"
    },
    {
      "inputs": [],
      "name": "factory",
      "outputs": [
        {
          "internalType": "address",
          "name": "",
          "type": "address"
        }
      ],
      "stateMutability": "view",
      "type": "function"
    },
    {
      "inputs": [
        {
          "internalType": "address",
          "name": "vault",
          "type": "address"
        }
      ],
      "name": "getYearnPricePerShare",
      "outputs": [
        {
          "internalType": "uint256",
          "name": "",
          "type": "uint256"
        }
      ],
      "stateMutability": "view",
      "type": "function"
    },
    {
      "inputs": [
        {
          "internalType": "address",
          "name": "vault",
          "type": "address"
        }
      ],
      "name": "getYearnUnderlyingToken",
      "outputs": [
        {
          "internalType": "contract ERC20",
          "name": "",
          "type": "address"
        }
      ],
      "stateMutability": "view",
      "type": "function"
    },
    {
      "inputs": [
        {
          "internalType": "uint256",
          "name": "_something",
          "type": "uint256"
        }
      ],
      "name": "setSomething",
      "outputs": [],
      "stateMutability": "nonpayable",
      "type": "function"
    },
    {
      "inputs": [],
      "name": "something",
      "outputs": [
        {
          "internalType": "uint256",
          "name": "",
          "type": "uint256"
        }
      ],
      "stateMutability": "view",
      "type": "function"
    },
    {
      "inputs": [],
      "name": "totalSupply",
      "outputs": [
        {
          "internalType": "uint256",
          "name": "",
          "type": "uint256"
        }
      ],
      "stateMutability": "view",
      "type": "function"
    },
    {
      "inputs": [
        {
          "internalType": "uint256",
          "name": "vaultSharesAmount",
          "type": "uint256"
        },
        {
          "internalType": "address",
          "name": "recipient",
          "type": "address"
        },
        {
          "internalType": "address",
          "name": "vault",
          "type": "address"
        }
      ],
      "name": "withdraw",
      "outputs": [
        {
          "internalType": "uint256",
          "name": "",
          "type": "uint256"
        }
      ],
      "stateMutability": "nonpayable",
      "type": "function"
    }
  ],
  "bytecode": "60806040526003805460ff1916905534801561001a57600080fd5b50600180546001600160a01b031916331790556104848061003c6000396000f3fe608060405234801561001057600080fd5b50600436106100935760003560e01c8063a7a0d53711610066578063a7a0d537146100ed578063b146b92a146100f6578063b460af9414610121578063c41b461b14610134578063c45a01551461014757600080fd5b806318160ddd1461009857806345df6534146100b45780636e553f65146100c757806370a08231146100da575b600080fd5b6100a160005481565b6040519081526020015b60405180910390f35b6100a16100c2366004610370565b61015a565b6100a16100d536600461038d565b6101c9565b6100eb6100e8366004610370565b50565b005b6100a160025481565b610109610104366004610370565b610213565b6040516001600160a01b0390911681526020016100ab565b6100a161012f3660046103bd565b61027d565b6100eb6101423660046103ff565b610308565b600154610109906001600160a01b031681565b600080829050806001600160a01b03166399530b066040518163ffffffff1660e01b8152600401602060405180830381865afa15801561019e573d6000803e3d6000fd5b505050506040513d601f19601f820116820180604052508101906101c29190610418565b9392505050565b60405163b6b55f2560e01b8152600481018390526000906001600160a01b0383169063b6b55f25906024016020604051808303816000875af115801561019e573d6000803e3d6000fd5b6000816001600160a01b031663fc0c546a6040518163ffffffff1660e01b8152600401602060405180830381865afa158015610253573d6000803e3d6000fd5b505050506040513d601f19601f820116820180604052508101906102779190610431565b92915050565b60008360000361028f575060006101c2565b604051627b8a6760e11b8152600481018590526001600160a01b03848116602483015283169062f714ce906044016020604051808303816000875af11580156102dc573d6000803e3d6000fd5b505050506040513d601f19601f820116820180604052508101906103009190610418565b949350505050565b6001546001600160a01b031633146103565760405162461bcd60e51b815260206004820152600d60248201526c6f6e6c79466163746f7279282960981b604482015260640160405180910390fd5b600255565b6001600160a01b03811681146100e857600080fd5b60006020828403121561038257600080fd5b81356101c28161035b565b600080604083850312156103a057600080fd5b8235915060208301356103b28161035b565b809150509250929050565b6000806000606084860312156103d257600080fd5b8335925060208401356103e48161035b565b915060408401356103f48161035b565b809150509250925092565b60006020828403121561041157600080fd5b5035919050565b60006020828403121561042a57600080fd5b5051919050565b60006020828403121561044357600080fd5b81516101c28161035b56fea2646970667358221220a9498917ffb04d21774aafe31fd2ada82e1f47279026a07c62225721c32ad08164736f6c634300080d0033",
  "bytecodeSha1": "ddf7091bbc612031308b875da2ca9c84e469b081",
  "compiler": {
    "evm_version": "istanbul",
    "optimizer": {
      "enabled": true,
      "runs": 200
    },
    "version": "0.8.13+commit.abaa5c0e"
  },
  "contractName": "YearnPort",
  "language": "Solidity",
  "natspec": {
    "kind": "dev",
    "methods": {},
    "version": 1
  },
  "opcodes": "PUSH1 0x80 PUSH1 0x40 MSTORE CALLVALUE DUP1 ISZERO PUSH2 0x10 JUMPI PUSH1 0x0 DUP1 REVERT JUMPDEST POP PUSH1 0x4 CALLDATASIZE LT PUSH2 0x93 JUMPI PUSH1 0x0 CALLDATALOAD PUSH1 0xE0 SHR DUP1 PUSH4 0xA7A0D537 GT PUSH2 0x66 JUMPI DUP1 PUSH4 0xA7A0D537 EQ PUSH2 0xED JUMPI DUP1 PUSH4 0xB146B92A EQ PUSH2 0xF6 JUMPI DUP1 PUSH4 0xB460AF94 EQ PUSH2 0x121 JUMPI DUP1 PUSH4 0xC41B461B EQ PUSH2 0x134 JUMPI DUP1 PUSH4 0xC45A0155 EQ PUSH2 0x147 JUMPI PUSH1 0x0 DUP1 REVERT JUMPDEST DUP1 PUSH4 0x18160DDD EQ PUSH2 0x98 JUMPI DUP1 PUSH4 0x45DF6534 EQ PUSH2 0xB4 JUMPI DUP1 PUSH4 0x6E553F65 EQ PUSH2 0xC7 JUMPI DUP1 PUSH4 0x70A08231 EQ PUSH2 0xDA JUMPI JUMPDEST PUSH1 0x0 DUP1 REVERT JUMPDEST PUSH2 0xA1 PUSH1 0x0 SLOAD DUP2 JUMP JUMPDEST PUSH1 0x40 MLOAD SWAP1 DUP2 MSTORE PUSH1 0x20 ADD JUMPDEST PUSH1 0x40 MLOAD DUP1 SWAP2 SUB SWAP1 RETURN JUMPDEST PUSH2 0xA1 PUSH2 0xC2 CALLDATASIZE PUSH1 0x4 PUSH2 0x370 JUMP JUMPDEST PUSH2 0x15A JUMP JUMPDEST PUSH2 0xA1 PUSH2 0xD5 CALLDATASIZE PUSH1 0x4 PUSH2 0x38D JUMP JUMPDEST PUSH2 0x1C9 JUMP JUMPDEST PUSH2 0xEB PUSH2 0xE8 CALLDATASIZE PUSH1 0x4 PUSH2 0x370 JUMP JUMPDEST POP JUMP JUMPDEST STOP JUMPDEST PUSH2 0xA1 PUSH1 0x2 SLOAD DUP2 JUMP JUMPDEST PUSH2 0x109 PUSH2 0x104 CALLDATASIZE PUSH1 0x4 PUSH2 0x370 JUMP JUMPDEST PUSH2 0x213 JUMP JUMPDEST PUSH1 0x40 MLOAD PUSH1 0x1 PUSH1 0x1 PUSH1 0xA0 SHL SUB SWAP1 SWAP2 AND DUP2 MSTORE PUSH1 0x20 ADD PUSH2 0xAB JUMP JUMPDEST PUSH2 0xA1 PUSH2 0x12F CALLDATASIZE PUSH1 0x4 PUSH2 0x3BD JUMP JUMPDEST PUSH2 0x27D JUMP JUMPDEST PUSH2 0xEB PUSH2 0x142 CALLDATASIZE PUSH1 0x4 PUSH2 0x3FF JUMP JUMPDEST PUSH2 0x308 JUMP JUMPDEST PUSH1 0x1 SLOAD PUSH2 0x109 SWAP1 PUSH1 0x1 PUSH1 0x1 PUSH1 0xA0 SHL SUB AND DUP2 JUMP JUMPDEST PUSH1 0x0 DUP1 DUP3 SWAP1 POP DUP1 PUSH1 0x1 PUSH1 0x1 PUSH1 0xA0 SHL SUB AND PUSH4 0x99530B06 PUSH1 0x40 MLOAD DUP2 PUSH4 0xFFFFFFFF AND PUSH1 0xE0 SHL DUP2 MSTORE PUSH1 0x4 ADD PUSH1 0x20 PUSH1 0x40 MLOAD DUP1 DUP4 SUB DUP2 DUP7 GAS STATICCALL ISZERO DUP1 ISZERO PUSH2 0x19E JUMPI RETURNDATASIZE PUSH1 0x0 DUP1 RETURNDATACOPY RETURNDATASIZE PUSH1 0x0 REVERT JUMPDEST POP POP POP POP PUSH1 0x40 MLOAD RETURNDATASIZE PUSH1 0x1F NOT PUSH1 0x1F DUP3 ADD AND DUP3 ADD DUP1 PUSH1 0x40 MSTORE POP DUP2 ADD SWAP1 PUSH2 0x1C2 SWAP2 SWAP1 PUSH2 0x418 JUMP JUMPDEST SWAP4 SWAP3 POP POP POP JUMP JUMPDEST PUSH1 0x40 MLOAD PUSH4 0xB6B55F25 PUSH1 0xE0 SHL DUP2 MSTORE PUSH1 0x4 DUP2 ADD DUP4 SWAP1 MSTORE PUSH1 0x0 SWAP1 PUSH1 0x1 PUSH1 0x1 PUSH1 0xA0 SHL SUB DUP4 AND SWAP1 PUSH4 0xB6B55F25 SWAP1 PUSH1 0x24 ADD PUSH1 0x20 PUSH1 0x40 MLOAD DUP1 DUP4 SUB DUP2 PUSH1 0x0 DUP8 GAS CALL ISZERO DUP1 ISZERO PUSH2 0x19E JUMPI RETURNDATASIZE PUSH1 0x0 DUP1 RETURNDATACOPY RETURNDATASIZE PUSH1 0x0 REVERT JUMPDEST PUSH1 0x0 DUP2 PUSH1 0x1 PUSH1 0x1 PUSH1 0xA0 SHL SUB AND PUSH4 0xFC0C546A PUSH1 0x40 MLOAD DUP2 PUSH4 0xFFFFFFFF AND PUSH1 0xE0 SHL DUP2 MSTORE PUSH1 0x4 ADD PUSH1 0x20 PUSH1 0x40 MLOAD DUP1 DUP4 SUB DUP2 DUP7 GAS STATICCALL ISZERO DUP1 ISZERO PUSH2 0x253 JUMPI RETURNDATASIZE PUSH1 0x0 DUP1 RETURNDATACOPY RETURNDATASIZE PUSH1 0x0 REVERT JUMPDEST POP POP POP POP PUSH1 0x40 MLOAD RETURNDATASIZE PUSH1 0x1F NOT PUSH1 0x1F DUP3 ADD AND DUP3 ADD DUP1 PUSH1 0x40 MSTORE POP DUP2 ADD SWAP1 PUSH2 0x277 SWAP2 SWAP1 PUSH2 0x431 JUMP JUMPDEST SWAP3 SWAP2 POP POP JUMP JUMPDEST PUSH1 0x0 DUP4 PUSH1 0x0 SUB PUSH2 0x28F JUMPI POP PUSH1 0x0 PUSH2 0x1C2 JUMP JUMPDEST PUSH1 0x40 MLOAD PUSH3 0x7B8A67 PUSH1 0xE1 SHL DUP2 MSTORE PUSH1 0x4 DUP2 ADD DUP6 SWAP1 MSTORE PUSH1 0x1 PUSH1 0x1 PUSH1 0xA0 SHL SUB DUP5 DUP2 AND PUSH1 0x24 DUP4 ADD MSTORE DUP4 AND SWAP1 PUSH3 0xF714CE SWAP1 PUSH1 0x44 ADD PUSH1 0x20 PUSH1 0x40 MLOAD DUP1 DUP4 SUB DUP2 PUSH1 0x0 DUP8 GAS CALL ISZERO DUP1 ISZERO PUSH2 0x2DC JUMPI RETURNDATASIZE PUSH1 0x0 DUP1 RETURNDATACOPY RETURNDATASIZE PUSH1 0x0 REVERT JUMPDEST POP POP POP POP PUSH1 0x40 MLOAD RETURNDATASIZE PUSH1 0x1F NOT PUSH1 0x1F DUP3 ADD AND DUP3 ADD DUP1 PUSH1 0x40 MSTORE POP DUP2 ADD SWAP1 PUSH2 0x300 SWAP2 SWAP1 PUSH2 0x418 JUMP JUMPDEST SWAP5 SWAP4 POP POP POP POP JUMP JUMPDEST PUSH1 0x1 SLOAD PUSH1 0x1 PUSH1 0x1 PUSH1 0xA0 SHL SUB AND CALLER EQ PUSH2 0x356 JUMPI PUSH1 0x40 MLOAD PUSH3 0x461BCD PUSH1 0xE5 SHL DUP2 MSTORE PUSH1 0x20 PUSH1 0x4 DUP3 ADD MSTORE PUSH1 0xD PUSH1 0x24 DUP3 ADD MSTORE PUSH13 0x6F6E6C79466163746F72792829 PUSH1 0x98 SHL PUSH1 0x44 DUP3 ADD MSTORE PUSH1 0x64 ADD PUSH1 0x40 MLOAD DUP1 SWAP2 SUB SWAP1 REVERT JUMPDEST PUSH1 0x2 SSTORE JUMP JUMPDEST PUSH1 0x1 PUSH1 0x1 PUSH1 0xA0 SHL SUB DUP2 AND DUP2 EQ PUSH2 0xE8 JUMPI PUSH1 0x0 DUP1 REVERT JUMPDEST PUSH1 0x0 PUSH1 0x20 DUP3 DUP5 SUB SLT ISZERO PUSH2 0x382 JUMPI PUSH1 0x0 DUP1 REVERT JUMPDEST DUP2 CALLDATALOAD PUSH2 0x1C2 DUP2 PUSH2 0x35B JUMP JUMPDEST PUSH1 0x0 DUP1 PUSH1 0x40 DUP4 DUP6 SUB SLT ISZERO PUSH2 0x3A0 JUMPI PUSH1 0x0 DUP1 REVERT JUMPDEST DUP3 CALLDATALOAD SWAP2 POP PUSH1 0x20 DUP4 ADD CALLDATALOAD PUSH2 0x3B2 DUP2 PUSH2 0x35B JUMP JUMPDEST DUP1 SWAP2 POP POP SWAP3 POP SWAP3 SWAP1 POP JUMP JUMPDEST PUSH1 0x0 DUP1 PUSH1 0x0 PUSH1 0x60 DUP5 DUP7 SUB SLT ISZERO PUSH2 0x3D2 JUMPI PUSH1 0x0 DUP1 REVERT JUMPDEST DUP4 CALLDATALOAD SWAP3 POP PUSH1 0x20 DUP5 ADD CALLDATALOAD PUSH2 0x3E4 DUP2 PUSH2 0x35B JUMP JUMPDEST SWAP2 POP PUSH1 0x40 DUP5 ADD CALLDATALOAD PUSH2 0x3F4 DUP2 PUSH2 0x35B JUMP JUMPDEST DUP1 SWAP2 POP POP SWAP3 POP SWAP3 POP SWAP3 JUMP JUMPDEST PUSH1 0x0 PUSH1 0x20 DUP3 DUP5 SUB SLT ISZERO PUSH2 0x411 JUMPI PUSH1 0x0 DUP1 REVERT JUMPDEST POP CALLDATALOAD SWAP2 SWAP1 POP JUMP JUMPDEST PUSH1 0x0 PUSH1 0x20 DUP3 DUP5 SUB SLT ISZERO PUSH2 0x42A JUMPI PUSH1 0x0 DUP1 REVERT JUMPDEST POP MLOAD SWAP2 SWAP1 POP JUMP JUMPDEST PUSH1 0x0 PUSH1 0x20 DUP3 DUP5 SUB SLT ISZERO PUSH2 0x443 JUMPI PUSH1 0x0 DUP1 REVERT JUMPDEST DUP2 MLOAD PUSH2 0x1C2 DUP2 PUSH2 0x35B JUMP INVALID LOG2 PUSH5 0x6970667358 0x22 SLT KECCAK256 0xA9 0x49 DUP10 OR SELFDESTRUCT 0xB0 0x4D 0x21 PUSH24 0x4AAFE31FD2ADA82E1F47279026A07C62225721C32AD08164 PUSH20 0x6F6C634300080D00330000000000000000000000 ",
  "sha1": "a9758698eaf34f93b814ffa83eeb81822518df4a",
  "source": "// SPDX-License-Identifier: MIT\npragma solidity ^0.8.0;\n\nimport {ERC20} from \"./../lib/solmate/src/tokens/ERC20.sol\";\nimport {SafeTransferLib} from \"./../lib/solmate/src/utils/SafeTransferLib.sol\";\n\nimport {Factory} from \"./Factory.sol\";\nimport {IYearn} from \"./../interfaces/Yearn/IYearn.sol\";\n\n    /*\n    * @title YearnPort\n    * @notice The implementation for Yearn vaults\n    */\n\ncontract YearnPort {\n\n    using SafeTransferLib for ERC20;\n\n    uint256 public totalSupply;\n\n    address public factory;\n    uint256 public something;\n    bool private _init_done = false;\n    address[] accepted_tokens;\n\n    mapping (address => uint256) user_to_ids;\n\n\n    modifier onlyFactory() {\n      require(msg.sender == factory, \"onlyFactory()\");\n      _;\n    }\n\n    modifier updateMaxFixed() {\n\n      _;\n    }\n\n    constructor () public {\n      factory = msg.sender;\n    }\n\n    /*\n     * Getters\n     */\n\n    // @return The underlying token in the YearnVault\n    function getYearnUnderlyingToken(address vault) public view returns(ERC20){\n        return ERC20(IYearn(vault).token());\n    }\n\n    // @notice Computes the latest yield value for a yearn vault.\n    // @return The latest yield value\n    function getYearnPricePerShare(address vault) public view returns(uint256){\n        IYearn yearnVault = IYearn(vault);\n        return (yearnVault.pricePerShare());\n    }\n\n\n\n    function setSomething(uint256 _something) external onlyFactory {\n      something = _something;\n    }\n\n    // @notice Deposit underlying into vault\n    function deposit(uint256 underlyingAmount, address vault) external returns (uint256){\n        return IYearn(vault).deposit(underlyingAmount);\n    }\n\n    // @notice Converts vault shares to underlying tokens.\n    function withdraw(uint256 vaultSharesAmount, address recipient, address vault) external returns(uint256){\n        if (vaultSharesAmount == 0) {\n            return 0;\n        }\n         return IYearn(vault).withdraw(vaultSharesAmount, recipient);\n    }\n\n\n    function _invest() internal {\n      // Р±РµСЂРµС‚ С‚РµРєСѓС‰РёРµ Р±Р°Р»Р°РЅСЃС‹ accepted_tokens Рё РґРµРїРѕР·РёС‚РёС‚ С„Р°СЂРјРёС‚СЊСЃСЏ\n    }\n\n    function balanceOf(address) public {\n      // РІРѕР·РІСЂР°С‰Р°РµС‚ РёСЃРєР°Р¶РµРЅРЅРѕРµ С‡РёСЃР»Рѕ С‚РѕРєРµРЅРѕРІ РєРѕС‚РѕСЂРѕРµ РјРѕР¶РЅРѕ РєРѕРЅРІРµСЂС‚РёСЂРѕРІР°С‚СЊ РІ РёРЅРІРµСЃС‚РёС†РёСЋ\n    }\n}\n\n",
  "sourcePath": "contracts/YearnPort.sol",
  "type": "contract"
}